:1000160020003A0020200020202020202020202020
:1000260020002E00504D00414D00746F6D6F00741E
:100036006F64617900436F756E74646F776E2043E9
:100046006C6F636B2056342E320050726573656E8A
:100056007420746F204C69616E67205143004261C1
:1000660074746572793A0025002D205072657365A7
:100076006E746564206279002D2042616F71692D6E
:100086007A686F6E67203A440000000000000000A6
:100096009E0000000E000E0028FE28FE284854FE92
:1000A6005424462610C8C46C92AA44A0000A06002E
:1000B600000038448200008244380010543854103E
:1000C60010107C101000A06000001010101010001E
:1000D6006060000040201008047CA2928A7C0084A4
:1000E600FE800084C2A2928C42828A9662302824C4
:1000F600FE204E8A8A8A72789492926002E2120AEE
:10010600066C9292926C0C9292523C006C6C0000BF
:1001160000AC6C0000001028448228282828288279
:10012600442810000402A2120C6492F2827CFC2283
:100136002222FCFE9292926C7C82828244FE828211
:100146004438FE92929282FE121202027C8282A2AF
:1001560064FE101010FE0082FE82004080827E0245
:10016600FE10284482FE80808080FE040804FEFE85
:10017600081020FE7C8282827CFE1212120C7C8287
:10018600A242BCFE1232528C8C929292620202FE03
:1001960002027E8080807E3E4080403EFE403040AF
:1001A600FEC6281028C60608F00806C2A2928A864D
:1001B6000000FE828204081020408282FE000008B1
:1001C600040204088080808080000204080040A8A1
:1001D600A8A8F0FE90888870708888884070888803
:1001E60090FE70A8A8A83010FC1202041028A8A837
:1001F60078FE100808F00088FA80004080887A00AF
:1002060000FE2050880082FE8000F8083008F0F8D2
:10021600100808F07088888870F828282810102898
:100226002830F8F81008081090A8A8A840087E887A
:10023600804078808040F838408040387880608000
:1002460078885020508818A0A0A07888C8A89888D8
:1002560080E0F0F8FCFC7C7E7E3E3E3E3E3E3E7EEE
:100266007EFCFCF8F8F0C000FFFFFFFFFF01000076
:100276000000000000000000000001FFFFFFFFFF7C
:10028600FFFFFFFFFF00000000000000000000006D
:10029600000000FFFFFFFFFFFFFFFFFFFF00000062
:1002A6000000000000000000000080FFFFFFFFFFCD
:1002B60001070F1F3F3F7E7C7C7C7C7C7C7C7C7CAA
:1002C6007C7E3F3F1F0F07010000000000006070AA
:1002D600787C7CFCFCFCFCFC0000000000000000BC
:1002E6000000000000000000000000FFFFFFFFFF0D
:1002F60000000000000000000000000000000000F8
:10030600000000FFFFFFFFFF0000000000000000EC
:100316000000000000000000000000FFFFFFFFFFDC
:1003260000000000000000000000000000000000C7
:10033600000000FFFFFF7F3F0000000000000000FC
:10034600007078787C7C7C7C7C7C7C7C7C7C7C7C77
:10035600FCFCF8F8F0F0C00000000000000000000F
:1003660000000000000000000000FFFFFFFFFFFF8D
:100376000080E0F0F0F8F8F8F8F8F8F8F8F8F8F88F
:10038600F8FCFF7F7F3F1F03FEFFFFFFFFFF01001B
:100396000000000000000000000000000000000057
:1003A600071F7F7FFFFFF8F8F0F0F0F0F0F0F0F0B5
:1003B600F0F0F0F0F0F0700000383C3C3E3E3E3E7F
:1003C6003E3E3E3E3E3E3E7E7EFEFCFCF8F0C000DB
:1003D6000000000000000000000000000000000017
:1003E6000000FFFFFFFFFF00000070787C7C7E7E30
:1003F6007E7E7E7E7E7E7E7E7EFFFFFFFFF7C300D3
:1004060000000000000000000000000000000000E6
:100416000000FFFFFFFFFFFF08387878F8F8F8F8CC
:10042600F8F8F8F8F8F8F8F8FCFC7F7F3F1F0F01A2
:10043600E0F0F8F8F8000000000000000000E0F02E
:10044600F8F8F80000000000FFFFFFFFFF000000C3
:10045600000000000000FFFFFFFFFF00000000009B
:10046600FFFFFFFFFF000000000000000000FFFF8D
:10047600FFFFFF0000000000030F1F1F3F3E3E3E30
:100486003E3E3E3E3E3EFFFFFFFFFF3E3E3E1E1E01
:1004960000000000000000000000000000007F7F58
:1004A6007F3F0F0000000000E0F0F8FCFC7E7E3E7F
:1004B6003E3E3E3E3E3E3E3E3E3E3E3C3C380000DC
:1004C600FFFFFFFFFF00000000000000000000002B
:1004D600000000000000000003070F1F1F3F3F3E03
:1004E6003E3E3E3E3E3E3E3E3E7EFEFCFCF8E0008C
:1004F60000000000000000000000000000000000F6
:100506000000FFFFFFFFFF00083878F8F8F8F8F85A
:10051600F8F8F8F8F8F8F8FCFCFE7F7F3F1F0700B4
:1005260000C0E0F0F0F8F8F8FCFCFCFCFCFCFCFC7D
:10053600FCFCF8F8F0E08000FFFFFFFFFF0300007F
:1005460000000000000000000000000000000000A5
:10055600FFFFFFFFFF0030383C3E3E3E3E3E3E3E44
:100566007E7EFCFCF8F0E080FFFFFFFFFF0000004E
:100576000000000000000000000001FFFFFFFFFF79
:10058600030F3F3F7F7EFCF8F8F8F8F8F8F8F8F824
:10059600FC7C7F7F3F1F0F033C3C3E3E3E3E3E3E83
:1005A6003E3E3E3E3E3E3E3EFEFEFEFEFE3E02001F
:1005B6000000000000000000000000000080F8FFBE
:1005C600FFFFFF1F01000000000000000000000008
:1005D60000000080F8FFFFFFFF1F01000000000081
:1005E60000000000000000000080F8FFFFFFFF1F72
:1005F6000100000000000000000000000000008074
:10060600F8FFFF7F3F1F0100000000000000000010
:100616000080E0F0F0F8F8F8FCFCFCFCFCFCFCFCCC
:10062600F8F8F8F8F0F0C08000FFFFFFFFFF0100C8
:100636000000000000000000000001FFFFFFFFFFB8
:1006460080E7EFFFFFFFFE7C7C7C7C7C7C7C7C7CF7
:100656007C7CFEFFFFFFEFC3FFFFFFFFFF000000F4
:10066600000000000000000000000001FFFFFFFF87
:10067600071F3F7F7FFCFCF8F8F8F8F8F8F8F8F861
:10068600F8F8FC7E7F7F3F1F80E0F0F8F8FC7C7C6A
:100696007E7E7E7E7E7E7E7E7C7CFCF8F8F0E000B0
:1006A600FFFFFFFFFF010000000000000000000048
:1006B600000001FFFFFFFFFF071F3F7F7FFEFCF8E3
:1006C600F8F8F8F8F8F8F8F8781800FFFFFFFFFFD9
:1006D6000000000000000000000000000000000014
:1006E600000080FFFFFFFFFF000C3C3C7C7C7C7C15
:1006F6007C7C7C7C7C7C7C7C7E3E3F3F1F0F0701A4
:10070600F0FCFEFE0F0707070707070FFEFEFCF0CB
:10071600FFFFFFFF0000000000000000FFFFFFFFDB
:100726000F3F7FFFF0E0E0E0E0E0E0F0FF7F3F0F0B
:1007360000000000060707FFFFFF000000000000A2
:1007460000000000000000FFFFFF000000000000A6
:1007560000000000000000FFFF7F00000000000016
:10076600000607070707070707070F0FFEFCF80035
:10077600C0F0F8F838383C3C3C3C3C3E1F0F0700C4
:100786000F3F7FFFE0E0E0E0E0E0E0E0E0E02000B7
:10079600000406070707070707070F0FFEFEFC0002
:1007A600000010181C1C1C1C1C1C3C3CFFFFF78086
:1007B6000060E0E0E0E0E0E0E0E0E0F0FF7F3F0F37
:1007C600FEFFFFFF000000000000FFFFFF0000002B
:1007D6003FFFFFFFC0C0C0C0C0C0FFFFFFC0C0C01A
:1007E600000001010103030303037F7F3F030101AF
:1007F60000FCFEFE0F0707070707070707060400AA
:1008060000070F1F1E1C1C1C1C1C1C3CFCF8F000C7
:100816000060E0E0E0E0E0E0E0E0E0F0FF7F3F00E5
:10082600F0FCFEFE0F0F0707070707070706040081
:10083600FFFFFFFF181C1C1E1E1E1C1CFCF8F0E010
:100846000F3F7FFFF0E0E0E0E0E0E0F0FF7F3F0FEA
:1008560004070707070707070787FFFFFF1F0100B2
:100866000000000000000080F8FFFF1F01000000EC
:10087600000000000080F8FF7F0F0000000000006D
:1008860000FCFEFE0F0707070707070F1FFEFCF811
:10089600E0F7FFFF3E1C1C1C1C1C1C1C3FFFFFF34B
:1008A6001F7F7FFFE0E0E0E0E0E0E0E0F0FF7F3F79
:1008B60000F8FCFE1F0F07070707070F0FFEFEF8DD
:1008C600000F1F3F7C7878787878783808FFFFFF2C
:1008D600002060E0E0E0E0E0E0E0E0E0F07F7F3F85
:1008E600002123E6008091D1FF919191F1810000D2
:1008F600407F30107C44444444447C0000C86B383C
:100906007F286E483CFF05F47C040082CE7F333A94
:100916002E4270390F1F7040000404C44F4444F443
:10092600444F44C404000084C4C764343C0F3C34C0
:1009360064C7C48480F820FE2040780FF808F808C1
:10094600F800090D0CFF06369CCF713E8780FF002C
:1009560000C070FC07000000FF80E070180801016D
:1009660000FF00040603FFC1C0C0F07000C0781F7E
:10097600181818FF181818181800006063636363C6
:10098600637F6363636360000000F8F888888E8E77
:1009960088888888F8000000FFFF8888888888880B
:1009A6008888FF0000C0F0FE070888E8FFFFE88897
:1009B60008000001007F080E0B08FFFF080B060C5D
:1009C600004242FE42E2F800FF8282FE828200205E
:1009D600301F101BC1780F40407F404000E4E464A4
:1009E600647F6464647F6464E404000084C46474A3
:1009F6001F04848484FC00000062C68C00445454A6
:100A0600547F5454545400C0FC0C00FF2929292952
:100A1600A9A9FF000000FC0404FC00FC8484848473
:100A2600868000003F20203FF07F000000FF00008E
:100A36000000C04000F0060E382000C0C000000EC6
:100A4600070000FF80808080F000070C001C042453
:100A5600A4A4E767642424A49C0000C9496D25B6B4
:100A66009BCFFE030F396140000404F494949497DD
:100A7600949494F4040400FEFE02023A2A2A2A3AC6
:100A86008282FE0000202424A4BFFFE4B4BCB8AEDA
:100A9600A620020203010704040444447C7C0000EF
:100AA6000040C3C6000282E232FE4662C202007005
:100AB6003F3F32636160607F60606163000084C4B1
:100AC600F43C2724242424E4040400010100FF0943
:100AD60009090949497F000000404242424242FE5C
:100AE6004242424242400080C060301C0F030F1C4D
:100AF6003060C080001E44643B4D6F6E64617900B7
:100B060000000054756573646179000000576564E0
:100B16006E657364617900546875727364617900F7
:100B26000046726964617900000000536174757251
:100B3600646179000053756E646179000000001FDE
:100B46001C1F1E1F1E1F1F1E1F1E1F01A401CC01DE
:100B5600D101F90203022B0244026C0276029E02C4
:100B6600A302CB035C0384038E03B603C003E8032E
:100B7600F20415046004C404D305320B0001040713
:100B8600030502080202040503010004050000042F
:100B9600010205060A0A0205010303040701010111
:100BA600010003050402000002050400030106011A
:100BB600010D0D0D0D0D0D0D0D0D009E007F006339
:100BC60000440026000701560137011800FA00DB31
:0A0BD60000BDE22F24811F40C8AFCC
:101D0800011200012B00010B0005250C000C050138
:101D1800012300012400010D00010E000122000131
:101D28002A00011300011E00010800011800010C1F
:081D3800010209000101210371
:101E2D00C28C75BA8090FE02E04480F090FE02E014
:101E3D0030E0F990FE00E4F0A3740FF090FE04E0A2
:071E4D00547FF0E4F5BA2216
:101E7B0075BA8090FE04E04480F090FE04E030E000
:101E8B00F990FE007403F0A3E4F0A3E0547FF0E4B8
:051E9B00F5BAD28C2213
:0C00060075AA0275AB807587020000220D
:0C1EDC0075AA0975AB8075870200002212
:101C1A00759403759303E4F592F591F596F595F5A8
:101C2A00B275B10FF5B4F5B3F5CAF5C9F580F590FB
:101C3A00F5A0F5B0F5C0F5C8D2B475AAFE75ABFF2C
:101C4A00750B017587020000F509750A01F50C226A
:101E540043B24053B1BFE4FEEEC39408748094804F
:101E64005014A806EF088002C313D8FC1392B6D20C
:061E7400B5C2B50E80E2CC
:011E7A002245
:101E0200E4FF53B2BF43B140FEEEC3940874809422
:101E120080501730B60DA8067401088002C333D86B
:0A1E2200FC4207D2B5C2B50E80DF06
:011E2C002293
:101B7700740F2508F8E6FF74272508F8E68FF08428
:101B8700E5F004F6E52775F00A84C454F0FFE5276D
:101B970075F00A84E5F02FFD7F88121BBAE52875DA
:101BA700F00A84C454F0FFE52875F00A84E5F02FA5
:031BB700FD7F8629
:0F1BBA00C2B6D2B7121E54AF05121E54C2B722C4
:101EA0007F85121EB6EFC4540775F00AA4FEEF54E6
:061EB0000F2EF5257F83D3
:0C1EB600C2B6D2B7121E54121E02C2B7F0
:011EC20022FD
:051EEE00C2B4021EDC7D
:061EE800121EDCD2B42240
:101DD600121EEEE4FD7F8E121BBA121B247D227F9B
:101DE6008C121BBA7F81121EB6EF547FFD7F8012C4
:0C1DF6001BBA7D807F8E121BBA021EE813
:101A7400A2B4E433FD64017003121EEE121EA0EF43
:101A8400C4540775F00AA4FEEF540F2EF5267F897F
:101A9400121EB6EFC4540775F00AA4FEEF540F2EBD
:101AA400F5277F87121EB6EFC4540775F00AA4FE0B
:101AB400EF540F2EF5287F8B121EB68F29AF05ED3C
:071AC40064017003121EE82B
:011ACB0022F8
:101B2400A2B4E433FC64017003121EEEE52575F0E3
:101B34000A84C454F0FFE52575F00A84E5F02FFD0E
:101B44007F84121BBAE52675F00A84C454F0FFE5BD
:101B54002675F00A84E5F02FFD7F82121BBA121B52
:101B64008BAD297F8A121BBAAF04EC640170031297
:021B74001EE869
:011B7600224C
:101DA90075F00A84AFF075F005EFA42EF582E435DD
:101DB900F0F583E58224DFF582E5833400F583E4D9
:021DC90093FF86
:0B1DCB008FCFE5CD30E7FB75CDC022C7
:101EC300FF121ED7E52C540FFF121ED7E52CC45466
:041ED3000F2410FFC9
:051ED700C296021DCBC4
:051EF300D296021DCB98
:101C5A00121E2DE4FEEEC3940874809480502AEE7E
:101C6A0024B0FF121ED7E4FF121ED77F10121ED710
:101C7A00D296E4FDEDC39480748094805008E4FF0A
:0C1C8A00121DCB0D80EE0E80CC021E7BE4
:101D7800C297120006D297C2CCC29175CED075CD4B
:101D8800C0C296E4FEEEC3940874809480500FEEAF
:101D9800900BD893FF121ED71200060E80E7021C84
:011DA8005AE0
:071627007BFF7A00791AFD38
:08162E008B338A348935AE07C5
:10163600ED24B0FF121ED7EE540FFF121ED7EE1286
:101646001ED1E4F537AB33AA34A935AF3705378F4A
:10165600827583001212426056D296E4F536C3E5CF
:1016660036940574809480503FE5377C0024FFF55E
:1016760082EC34FFF583AB33AA34A935121242FD4E
:101686003395E08D82F583740512135AE58225366B
:10169600F582E43583F583E58224EFF582E583342C
:0F16A600FF121DC6053680B6E4FF121DCB8096DD
:0116B5002212
:02174200AC07F2
:10174400ED24B0FF121ED7EC540FFF121ED7EC127B
:101754001ED1D296E5366403701EFEEEC394057462
:10176400809480500EEB75F0648475F005121DB3FF
:101774000E80E8E4FF121DCBE536C3940274809416
:1017840080401CE4FEEEC3940574809480500BEBFF
:1017940075F00A84121DA90E80EBE4FF121DCBE53F
:1017A40036C39401748094804018E4FEEEC394051B
:1017B400748094805007EB121DA90E80EFE4FF1291
:0217C4001DCB3B
:0117C6002200
:0617C7008F328D33A903EF
:1017CD00E4FDEDC39405748094805068E53324B036
:1017DD002DFF121ED7E532540FFF121ED7E5321220
:1017ED001ED1D296E9640A7013FCECC39418748070
:1017FD009480503DE4FF121DCB0C80EEE4FCECC355
:10180D009418748094805029ED75F018A4FBAAF0FB
:10181D00E975F078A42BFFE5F03AFEEC7A002FFF86
:10182D00EA3EFE74562FF58274023E121DC60C80E0
:04183D00CD0D808EBF
:011841002284
:061842008F2F8D30A90379
:10184800E4FDEDC39404748094805068E53024B0BE
:101858002DFF121ED7E52F540FFF121ED7E52F12AA
:101868001ED1D296E9640A7013FCECC394107480FC
:101878009480503DE4FF121DCB0C80EEE4FCECC3D9
:101888009410748094805029ED75F010A4FBAAF090
:10189800E975F030A42BFFE5F03AFEEC7A002FFF53
:1018A800EA3EFE74062FF58274073E121DC60C80B0
:0418B800CD0D808E44
:0118BC002209
:0A14DE008F2C8D2D8B2E8A2F893064
:1014E800C374019518F518E5136401701CE51870AC
:1014F80018E52264046012E508700875190A751A5F
:101508000A8006751B0A751C0AE519700375190A05
:10151800E4F531C3E5319404748094805022E531B8
:10152800900AFA93252CFFAB2EAA2FA93085318279
:10153800758300121242FBAD2D1217C7053180D3F7
:10154800900AFEE493252CF52CE52D24B1121EC338
:10155800D296E4FEEEC394047480948050087F7E93
:10156800121DCB0E80EEE52D24B3121EC3D296E4D5
:10157800FEEEC394047480948050087F7E121DCBC5
:031588000E80EEE4
:01158B00223D
:101ACC00E52A6031AF257E00D3EF940C74809480AE
:101ADC004023EF24F4FBEE34FFFA7C007D0AAF03C5
:101AEC00FE12126F8F197C007D0AAF03AE02121228
:101AFC006F8D1A8011E52575F00A84F519E52575A9
:101B0C00F00A8485F01AE52675F00A84F51BE526A3
:081B1C0075F00A8485F01C221B
:02158C00A907AD
:10158E00E4FDEDC39402748094804003021626EDB0
:10159E0024B2FF121ED7E4FF121ED77F10121ED7E1
:1015AE00D296E4FCECC3940974809480506675F076
:1015BE0009E9A42CF582E435F0F583E5822481F562
:1015CE0082E583340BF583E49375F01CA4FBAAF03B
:1015DE00ED75F00EA4AEF02BF52DEA3EF52CEC6475
:1015EE0005700AFF121DCB121DCB121DCBE4FEEEB1
:1015FE00C3940E748094805018EE7A00252DFBEA69
:10160E00352CFA74E62BF58274083A121DC60E803C
:08161E00DE0C80900D02159016
:0116260022A1
:101938008F2F8D308B31E52A6014D3E531940C74E8
:101948008094804009E53175F00C8485F031C3E559
:1019580031940A74809480400B753602AB31AD30F7
:10196800AF2F80197BFF7A007916AD30AF2F121692
:101978002EE52F2405FF753601AB31AD3012174225
:10198800E52F240CFF7BFF7A007918AD3012162E54
:0F199800E52F2411FF753602AB32AD3002174236
:0418BD008F2CAB05BC
:1018C100E52575F03CA47C002526FFEC35F0FEE40F
:1018D100FAEAC39417748094805019EA25E02451E0
:1018E100F582E4340BF583D37401939FE4939E5006
:1018F100030A80DDEA25E02451F582E4340BF58307
:10190100E493FE740193FF7C007D3C12126F8E2DD7
:101911008F2EEA25E02451F582E4340BF583E4931C
:10192100FE740193FF7C007D3C12126F8D32AD037A
:07193100AB2EAF2C021938A8
:061A12008D2F8B30A907A7
:101A1800E4FDEDC3940274809480504FE52F24B008
:101A28002DFF121ED7E9540FFF121ED7E9121ED13F
:101A3800D296E4FCECC3940E74809480502AED7521
:101A4800F00EA4FBAAF0E53075F01CA42BFFE5F01E
:101A58003AFEEC7A002FFFEA3EFE74E62FF5827418
:0B1A6800083E121DC60C80CC0D80A7AC
:011A73002250
:1019A700C374019518F518E5136027E5187023E54A
:1019B7000870057F02121627E508640170057F127B
:1019C700121627E508640270417BFF7A00791DFD36
:1019D70080337BFF7A007928E4FD7F0D12162E7580
:1019E7003602AB27E4FD7F02121742753602AB2899
:1019F7007F12121742E52975F00AA424F5F9740A33
:0B1A070035F0FA7BFF7F2312162E2221
:10142600E52725E024BEF582E4340BF583C3740179
:10143600939528F52EE4939400F52DC3648094804B
:101446005005E4F52DF52ED3E52E9463E52D648045
:101456009480400FAE2DAF2E7C007D641212C4AB7B
:101466000780027B0A7D057F3C121842D3E52E9445
:1014760009E52D648094804016AE2DAF2E7C007D4C
:101486000A1212C47C007D0A1212C4AB0580027BCC
:101496000A7D057F4E121842AE2DAF2E7C007D0AC6
:1014A6001212C4AB057D057F60121842E4F52CC309
:1014B600E52C9404748094805015E52C75F00EA4E8
:1014C600FFE52C240EFB7D06121A12052C80E07B0C
:0814D600127D067F72021A125A
:100BE000E5292423FFE433FEC3EF9528FFEE9400AC
:100BF000FE7C007D0712126F8D2FE527900B44932A
:100C0000F530E4F52EF52CE52CC3952F5018E52C86
:100C100075F013A42404FF7BFF7A0079167D02127D
:100C2000162E052C80E1852F2CC3E52C94077480AB
:100C300094805019052EE52C75F013A42404FF753B
:100C40003601AB2E7D02121742052C80DC752D017A
:100C5000C3E52D940674809480507BE4F52CC3E5A5
:100C60002C9407748094805068052EE52E953040B2
:100C700018E52C75F013A404FFE52D2402FD7BFF7D
:100C80007A00791A12162E8044C3E52E940A7480D5
:100C90009480E52C75F0135024A404FFE52D240264
:100CA000FD7BFF7A00791A12162EE52C75F013A43D
:100CB0002404FFE52D2402FD753601800BA404FFFA
:100CC000E52D2402FD753602AB2E121742052C804D
:100CD0008D052D020C50E4F52DC3E52D940674808E
:100CE0009480504FE52D24B2FF121ED7E4F52CC39B
:100CF000E52C9406748094805035E52C75F013A48F
:100D00002410540FFF121ED7E52C75F013A42410E5
:100D1000FFE435F0FEEF7804CEA2E713CE13D8F847
:100D20002410FF121ED77FFF121EF3052C80C00572
:100D30002D80A6E52F2528FFE433CF24FFCF34FFF5
:100D4000FE7C007D0712126F8F2DE52D24B2FF125D
:100D50001ED7E52975F013A424EB540FFF121ED7FC
:100D6000E52975F013A424EB121ED17FFF121EF3A8
:100D7000121EF3E52975F013A424FB540FFF121E75
:100D8000D7E52975F013A424FB121ED17FFF121E94
:100D9000F3121EF37FB1121ED7E4FF121ED77F108D
:100DA000121ED7D296E4FEEEC39403748094805052
:100DB000087F20121DCB0E80EEE4F52CE52CC394A9
:100DC00007748094805075E4FF121DCBE4FEEEC3DF
:100DD000940574809480502DE52C75F00AA424FFAE
:100DE000F582E4340AF583E49375F005A42EF582C8
:100DF000E435F0F583E58224EFF582E58334FF12D4
:100E00001DC60E80C9E4FF121DCBE4FEEEC394069E
:100E10007480948050087F20121DCB0E80EE7FE0FE
:100E2000121DCBE4FEEEC394057480948050087FBD
:0C0E300020121DCB0E80EE052C020DBC24
:010E3C002293
:10109500121E2DE512704C121EA0EFC4540775F0F8
:1010A5000AA4FEEF540F2EF526121ACCD3E525948B
:1010B5000C748094807BFF40067A00792A80047A3C
:1010C50000792DE4FD7F0212162EE4FD7F621218D1
:1010D500BD7B007A0079197D027F021214DEC29170
:1010E50002123FE51264017042121A741219A7D355
:1010F500E5259411748094807BFF40157A00793042
:10110500E4FD7F6312162EE52975F00784AFF080A4
:101115000F7A007935E4FD7F6312162EE52914FF59
:1011250012158C121426C29102123FE51264027048
:101135000C121A741219A7120BE002123FE5126481
:1011450003600302123F7BFF7A00793BFD7F0212A9
:10115500162E7BFF7A0079507D017F0212162E43F1
:10116500BC8012000612000643BC400000E5BC30FE
:10117500E5FB53BCDFAFBDE48F17F516F515F51488
:101185007F49FEFDFCAB17AA16A915A814C31213B7
:10119500495006E47517498018E47F53FEFDFCAB02
:1011A50017AA16A915A814D3121349400AE47517EE
:1011B50053F516F515F514E51724B7FFE51634FFB5
:1011C500FEE51534FFFDE51434FFFCE47B0AFAF96E
:1011D500F81212FAC374649FF520E49EF51F7BFF95
:1011E5007A0079647D037F0212162EE5206464453A
:1011F5001FAB2070147536037D037F321217427BB7
:10120500FF7A00796D7F4680127536027D037F3245
:101215001217427BFF7A00796D7F4012162E7BFFF5
:101225007A00796F7D067F0212162E7BFF7A007990
:0D1235007E7D077F0212162EC291021E7BE5
:101BC900E51E64017024AF23FEEF64017008E5246B
:101BD9007004050D8003E4F50DE52464017008EF38
:101BE9004E7004050E8003E4F50ED3E50D942074C0
:101BF9008094804008752202E4F50DF51ED3E50EA8
:101C09009420748094804008752204E4F50EF51E32
:011C190022A8
:100E3D00E51370047F0180027F00E522FB7A0064D8
:100E4D000170047E0180027E00EE5FFFE52B7004D1
:100E5D007E0180027E00EE5F601775AA0275AB8081
:100E6D007587020000E512045403F512121C5A8016
:100E7D0066EB64024A703AE51264036031750C0149
:100E8D00E5136010E4F5137D807F8E121BBA121EE0
:100E9D00E802104B751301E4F508F509750A107594
:100EAD002103121EEEFD7F8E121BBA02104B021093
:100EBD004BE512FB7A006003020FF0750F187510E9
:100ECD003CE5137003020FB0AF227E00EF6401709A
:100EDD000CC3049508F508750C0102104BEF640363
:100EED004E705A74252508F8E62401FFE433FE748C
:100EFD000F2508F8E6FD7C0012126F74252508F801
:100F0D00A605E52575F00A84C454F0FFE52575F0B6
:100F1D000A84E5F02FFD7F84121BBAE52675F00AD1
:100F2D0084C454F0FFE52675F00A84E5F02FFD7FAB
:100F3D0082121BBA750C01E4F518F52222E5226424
:100F4D0004600302106F1521E521600302106F7517
:100F5D00210374252508F8E62401FFE433FE740F00
:100F6D002508F8E6FD7C0012126F74252508F8A6F9
:100F7D0005E52575F00A84C454F0FFE52575F00AE2
:100F8D0084E5F02FFD7F84121BBAE52675F00A84E7
:100F9D00C454F0FFE52675F00A84E5F02FFD7F823D
:100FAD00021065E5226403600302106FC304952AE5
:100FBD00F52AA2B4E433FC64017003121EEEE4FDC5
:100FCD007F8E121BBAAD2A7FD0121BBA7D807F8E09
:100FDD00121BBAAF04EC64017003121EE8750C010C
:100FED0002104BEB64024A70047F0180027F00E522
:100FFD0012640170047E0180027E00EE4F60637505
:10100D000F0C75101F751107E5136056E522FB7A5D
:10101D000064017016E5082401FFE433FE7C007DB9
:10102D000312126F8D08750C018013EB64034A7067
:10103D0011121B77AD297F8A121BBA750C01E4F5CD
:10104D002222E5226404701A1521E5217014752100
:10105D0003121B77AD297F8A121BBA750C01E4F5BB
:10106D001822AF227E00EF64027007E5237003F5AE
:10107D002222EF64044E7007E5247003F52222E569
:07108D002264037002F5224A
:011094002239
:101D4100E4F50B7592FFF59175B2FFF5B143CA1039
:101D510053C9EF53B2FB43B10453B2F743B108C2C5
:101D6100B5D297C2CCC291121D78E4F512121A7441
:071D7100750C01E4F50B22E3
:03000300021C9646
:101C9600C0E0C0D030B2057523018028E50B600591
:101CA600121C1A801FD3E50D9400748094804003A3
:101CB600752201E52264027002F522751E01752364
:091CC60000750D00D0D0D0E03211
:03001300021CCFFD
:101CCF00C0E0C0D030B3057524018028E50B600556
:101CDF00121C1A801FD3E50E940074809480400369
:101CEF00752203E52264047002F522751E01752426
:091CFF0000750E00D0D0D0E032D7
:10136B00121E7B7592FFE4F59175B2FFF5B143CA7E
:10137B001053C9EF53B2FB43B10453B2F743B10857
:10138B00C2B7C2B5C2B6121D78121DD6D2A8C2887A
:10139B00D2AAC28AD2AFC29043BA8090FEA8743F41
:1013AB00F053BA7F75DE0F75BC0FE50A150A700294
:1013BB001509E50A45097042750C01E513600EE548
:1013CB001264036008750900750A10802D750908F1
:1013DB00750A66121A74AF257E00C3EF94177480DA
:1013EB009480500AC3EF9406748094805005121CAD
:1013FB001A8007E50B6003121D41E50C6006E4F54E
:10140B000C121095121BC9E5226003120E3D75AA32
:0B141B003075AB807587020000808FE9
:030000000216B62F
:0C16B600787FE4F6D8FD7581370216FD40
:10124200BB010CE58229F582E5833AF583E0225061
:1012520006E92582F8E622BBFE06E92582F8E222AB
:0D126200E58229F582E5833AF583E49322C5
:10126F00BC000BBE0029EF8DF084FFADF022E4CC63
:10127F00F875F008EF2FFFEE33FEEC33FCEE9DEC2C
:10128F00984005FCEE9DFE0FD5F0E9E4CEFD22ED72
:10129F00F8F5F0EE8420D21CFEADF075F008EF2FBC
:1012AF00FFED33FD4007985006D5F0F222C398FDAD
:0512BF000FD5F0EA224A
:1012C400C2D5EC30E709B2D5E4C39DFDE49CFCEE45
:1012D40030E715B2D5E4C39FFFE49EFE12126FC33C
:1012E400E49DFDE49CFC800312126F30D507C3E437
:0612F4009FFFE49EFE22B4
:1012FA00E88FF0A4CC8BF0A42CFCE98EF0A42CFC93
:10130A008AF0EDA42CFCEA8EF0A4CDA8F08BF0A410
:10131A002DCC3825F0FDE98FF0A42CCD35F0FCEB6F
:10132A008EF0A4FEA9F0EB8FF0A4CFC5F02ECD3934
:0F133A00FEE43CFCEAA42DCE35F0FDE43CFC22A1
:10134900EB9FF5F0EA9E42F0E99D42F0E89C45F0FA
:011359002271
:10135A00F5F0C582A4C582C5F0C583A42583F583AB
:01136A002260
:1016C20002136BE493A3F8E493A34003F68001F2C0
:1016D20008DFF48029E493A3F85407240CC8C33329
:1016E200C4540F4420C8834004F456800146F6DFF8
:1016F200E4800B0102040810204080901D08E47E63
:10170200019360BCA3FF543F30E509541FFEE493EC
:10171200A360010ECF54C025E060A840B8E493A3B3
:10172200FAE493A3F8E493A3C8C582C8CAC583CADE
:10173200F0A3C8C582C8CAC583CADFE9DEE780BE96
:011D400000A2
:00000001FF
