:1000160020003A0020200020202020202020202020
:1000260020002E00504D00414D00746F6D6F00741E
:100036006F64617900436F756E74646F776E2043E9
:100046006C6F636B005665722E20342E31002D20A6
:1000560044657369676E6564206279002D2042618C
:100066006F71692D7A686F6E67203A440000000050
:10007600000000009E0000000E000E0028FE28FE74
:10008600284854FE5424462610C8C46C92AA44A09C
:10009600000A06000000384482000082443800103E
:1000A6005438541010107C101000A060000010107E
:1000B600101010006060000040201008047CA2921E
:1000C6008A7C0084FE800084C2A2928C42828A9638
:1000D60062302824FE204E8A8A8A72789492926030
:1000E60002E2120A066C9292926C0C9292523C00B8
:1000F6006C6C000000AC6C000000102844822828BC
:1001060028282882442810000402A2120C6492F2C5
:10011600827CFC222222FCFE9292926C7C8282825B
:1001260044FE82824438FE92929282FE12120202AB
:100136007C8282A264FE101010FE0082FE820040C5
:1001460080827E02FE10284482FE80808080FE042B
:100156000804FEFE081020FE7C8282827CFE1212BB
:10016600120C7C82A242BCFE1232528C8C9292926B
:10017600620202FE02027E8080807E3E4080403E19
:10018600FE403040FEC6281028C60608F00806C203
:10019600A2928A860000FE82820408102040828293
:1001A600FE000008040204088080808080000204AB
:1001B600080040A8A8A8F0FE9088887070888888F3
:1001C6004070888890FE70A8A8A83010FC1202041F
:1001D6001028A8A878FE100808F00088FA800040C9
:1001E60080887A0000FE2050880082FE8000F80891
:1001F6003008F0F8100808F07088888870F8282809
:10020600281010282830F8F81008081090A8A8A878
:1002160040087E88804078808040F83840804038AA
:100226007880608078885020508818A0A0A07888B0
:10023600C8A8988880E0F0F8FCFC7C7E7E3E3E3EB6
:100246003E3E3E7E7EFCFCF8F8F0C000FFFFFFFF5E
:10025600FF0100000000000000000000000001FF98
:10026600FFFFFFFFFFFFFFFFFF0000000000000091
:1002760000000000000000FFFFFFFFFFFFFFFFFF81
:10028600FF0000000000000000000000000080FFEA
:10029600FFFFFFFF01070F1F3F3F7E7C7C7C7C7CBE
:1002A6007C7C7C7C7C7E3F3F1F0F070100000000AA
:1002B60000006070787C7CFCFCFCFCFC000000000C
:1002C600000000000000000000000000000000FF29
:1002D600FFFFFFFF0000000000000000000000001C
:1002E60000000000000000FFFFFFFFFF000000000D
:1002F600000000000000000000000000000000FFF9
:10030600FFFFFFFF000000000000000000000000EB
:1003160000000000000000FFFFFF7F3F000000001C
:1003260000000000007078787C7C7C7C7C7C7C7C87
:100336007C7C7C7CFCFCF8F8F0F0C000000000003F
:100346000000000000000000000000000000FFFFA9
:10035600FFFFFFFF0080E0F0F0F8F8F8F8F8F8F893
:10036600F8F8F8F8F8FCFF7F7F3F1F03FEFFFFFF5A
:10037600FFFF010000000000000000000000000078
:1003860000000000071F7F7FFFFFF8F8F0F0F0F095
:10039600F0F0F0F0F0F0F0F0F0F0700000383C3CD7
:1003A6003E3E3E3E3E3E3E3E3E3E3E7E7EFEFCFCAB
:1003B600F8F0C0000000000000000000000000008F
:1003C600000000000000FFFFFFFFFF000000707844
:1003D6007C7C7E7E7E7E7E7E7E7E7E7E7EFFFFFFB8
:1003E600FFF7C3000000000000000000000000004E
:1003F600000000000000FFFFFFFFFFFF08387878CD
:10040600F8F8F8F8F8F8F8F8F8F8F8F8FCFC7F7F50
:100416003F1F0F01E0F0F8F8F800000000000000B0
:100426000000E0F0F8F8F80000000000FFFFFFFF12
:10043600FF000000000000000000FFFFFFFFFF00BC
:1004460000000000FFFFFFFFFF00000000000000AB
:100456000000FFFFFFFFFF0000000000030F1F1F4B
:100466003F3E3E3E3E3E3E3E3E3EFFFFFFFFFF3EE0
:100476003E3E1E1E000000000000000000000000BE
:1004860000007F7F7F3F0F0000000000E0F0F8FCD7
:10049600FC7E7E3E3E3E3E3E3E3E3E3E3E3E3E3C3A
:1004A6003C380000FFFFFFFFFF00000000000000D7
:1004B60000000000000000000000000003070F1FFE
:1004C6001F3F3F3E3E3E3E3E3E3E3E3E3E7EFEFCA5
:1004D600FCF8E00000000000000000000000000042
:1004E600000000000000FFFFFFFFFF00083878F85B
:1004F600F8F8F8F8F8F8F8F8F8F8F8FCFCFE7F7F5A
:100506003F1F070000C0E0F0F0F8F8F8FCFCFCFC28
:10051600FCFCFCFCFCFCF8F8F0E08000FFFFFFFFB1
:10052600FF030000000000000000000000000000C3
:1005360000000000FFFFFFFFFF0030383C3E3E3E5C
:100546003E3E3E3E7E7EFCFCF8F0E080FFFFFFFF75
:10055600FF0000000000000000000000000001FF96
:10056600FFFFFFFF030F3F3F7F7EFCF8F8F8F8F828
:10057600F8F8F8F8FC7C7F7F3F1F0F033C3C3E3EBB
:100586003E3E3E3E3E3E3E3E3E3E3E3EFEFEFEFE85
:10059600FE3E020000000000000000000000000017
:1005A6000080F8FFFFFFFF1F0100000000000000B1
:1005B6000000000000000080F8FFFFFFFF1F0100A1
:1005C6000000000000000000000000000080F8FFAE
:1005D600FFFFFF1F010000000000000000000000F8
:1005E60000000080F8FFFF7F3F1F010000000000B1
:1005F600000000000080E0F0F0F8F8F8FCFCFCFCDD
:10060600FCFCFCFCF8F8F8F8F0F0C08000FFFFFFF7
:10061600FFFF01000000000000000000000001FFD5
:10062600FFFFFFFF80E7EFFFFFFFFE7C7C7C7C7C0B
:100636007C7C7C7C7C7CFEFFFFFFEFC3FFFFFFFF23
:10064600FF000000000000000000000000000001A4
:10065600FFFFFFFF071F3F7F7FFCFCF8F8F8F8F865
:10066600F8F8F8F8F8F8FC7E7F7F3F1F80E0F0F896
:10067600F8FC7C7C7E7E7E7E7E7E7E7E7C7CFCF8AC
:10068600F8F0E000FFFFFFFFFF01000000000000A0
:1006960000000000000001FFFFFFFFFF071F3F7F74
:1006A6007FFEFCF8F8F8F8F8F8F8F8F8781800FF84
:1006B600FFFFFFFF00000000000000000000000038
:1006C60000000000000080FFFFFFFFFF000C3C3C25
:1006D6007C7C7C7C7C7C7C7C7C7C7C7C7E3E3F3F0A
:1006E6001F0F0701F0FCFEFE0F0707070707070F9E
:1006F600FEFEFCF0FFFFFFFF000000000000000010
:10070600FFFFFFFF0F3F7FFFF0E0E0E0E0E0E0F0FB
:10071600FF7F3F0F00000000060707FFFFFF0000F6
:100726000000000000000000000000FFFFFF0000C6
:100736000000000000000000000000FFFF7F000036
:1007460000000000000607070707070707070F0F47
:10075600FEFCF800C0F0F8F838383C3C3C3C3C3E27
:100766001F0F07000F3F7FFFE0E0E0E0E0E0E0E082
:10077600E0E02000000406070707070707070F0F3A
:10078600FEFEFC00000010181C1C1C1C1C1C3C3C23
:10079600FFFFF7800060E0E0E0E0E0E0E0E0E0F0AE
:1007A600FF7F3F0FFEFFFFFF000000000000FFFF7E
:1007B600FF0000003FFFFFFFC0C0C0C0C0C0FFFF7A
:1007C600FFC0C0C0000001010103030303037F7FD4
:1007D6003F03010100FCFEFE0F0707070707070797
:1007E6000706040000070F1F1E1C1C1C1C1C1C3CBB
:1007F600FCF8F0000060E0E0E0E0E0E0E0E0E0F0DF
:10080600FF7F3F00F0FCFEFE0F0F070707070707F5
:1008160007060400FFFFFFFF181C1C1E1E1E1C1CE3
:10082600FCF8F0E00F3F7FFFF0E0E0E0E0E0E0F012
:10083600FF7F3F0F04070707070707070787FFFF25
:10084600FF1F01000000000000000080F8FFFF1FEE
:1008560001000000000000000080F8FF7F0F00008C
:100866000000000000FCFEFE0F0707070707070F42
:100876001FFEFCF8E0F7FFFF3E1C1C1C1C1C1C1C8A
:100886003FFFFFF31F7F7FFFE0E0E0E0E0E0E0E016
:10089600F0FF7F3F00F8FCFE1F0F07070707070F53
:1008A6000FFEFEF8000F1F3F7C787878787878384E
:1008B60008FFFFFF002060E0E0E0E0E0E0E0E0E0CD
:1008C600F07F7F3F002123E6008091D1FF91919137
:1008D600F1810000407F30107C44444444447C0055
:1008E60000C86B387F286E483CFF05F47C04008204
:1008F600CE7F333A2E4270390F1F7040000404C475
:100906004F4444F4444F44C404000084C4C76434D0
:100916003C0F3C3464C7C48480F820FE2040780F26
:10092600F808F808F800090D0CFF06369CCF713E52
:100936008780FF0000C070FC07000000FF80E070A9
:100946001808010100FF00040603FFC1C0C0F070D3
:1009560000C0781F181818FF18181818180000601B
:1009660063636363637F6363636360000000F8F837
:1009760088888E8E88888888F8000000FFFF88881F
:10098600888888888888FF0000C0F0FE070888E805
:10099600FFFFE88808000001007F080E0B08FFFF34
:1009A600080B060C004242FE42E2F800FF8282FE7D
:1009B60082820020301F101BC1780F40407F4040CC
:1009C60000E4E464647F6464647F6464E4040000B7
:1009D60084C464741F04848484FC00000062C68C92
:1009E60000445454547F5454545400C0FC0C00FF2B
:1009F60029292929A9A9FF000000FC0404FC00FC00
:100A060084848484868000003F20203FF07F00009D
:100A160000FF00000000C04000F0060E382000C0B5
:100A2600C000000E070000FF80808080F000070CE9
:100A3600001C0424A4A4E767642424A49C0000C921
:100A4600496D25B69BCFFE030F396140000404F4BF
:100A560094949497949494F4040400FEFE02023A4B
:100A66002A2A2A3A8282FE0000202424A4BFFFE418
:100A7600B4BCB8AEA6200202030107040404444431
:100A86007C7C00000040C3C6000282E232FE466261
:100A9600C20200703F3F32636160607F60606163E5
:100AA600000084C4F43C2724242424E40404000124
:100AB6000100FF0909090949497F00000040424237
:100AC600424242FE4242424242400080C060301CE6
:100AD6000F030F1C3060C080001E44643B4D6F6ED8
:100AE60064617900000000547565736461790000E3
:100AF600005765646E657364617900546875727336
:100B060064617900004672696461790000000053EF
:100B160061747572646179000053756E6461790061
:100B26000000001F1C1F1E1F1E1F1F1E1F1E1F0151
:100B3600A401CC01D101F90203022B0244026C028A
:100B460076029E02A302CB035C0384038E03B603E4
:100B5600C003E803F20415046004C404D305320B91
:100B6600000104070305020802020405030100044C
:100B760005000004010205060A0A02050103030432
:100B8600070101010100030504020000020504003B
:100B960001030601010D0D0D0D0D0D0D0D0D009E30
:100BA600007F006300440026000701560137011844
:0E0BB60000FA00DB00BDE22F24811F40C8AF13
:101D4500011200012500010B00051F0C000A1707F1
:101D5500011D00011E00010D00010E00011C000106
:101D65002400011300011A00010800011400010CF0
:081D75000102090001011B0835
:101E6700C28C75BA8090FE02E04480F090FE02E0DA
:101E770030E0F990FE00E4F0A3740FF090FE04E068
:071E8700547FF0E4F5BA22DC
:101EB50075BA8090FE04E04480F090FE04E030E0C6
:101EC500F990FE007403F0A3E4F0A3E0547FF0E47E
:051ED500F5BAD28C22D9
:041C80007F017E0062
:101C840075BA8090FE01E0640F701EF5BAFCFDC3C6
:061C9400ED9FEC9E502CB8
:0C1C9A00752A02752BEFD52BFDD52AFA18
:101CA6000DBD00010C80E6E4F5BAFCFDC3ED9FEC2A
:031CB6009E500D30
:061CB900752A08D52AFD82
:071CBF000DBD00010C80ECDB
:011CC60022FB
:101CC700759403759303E4F592F591F596F595F5FB
:101CD700B275B10FF5B4F5B3F5CAF5C9F580F5904E
:101CE700F5A0F5B0F5C0F5C8D2B475AAFE75ABFF7F
:101CF700750B0175870200000000F509750A01F5EB
:021D07000C22AC
:101E8E0043B24053B1BFE4FEEEC394087480948015
:101E9E005014A806EF088002C313D8FC1392B6D2D2
:061EAE00B5C2B50E80E292
:011EB400220B
:101E3C00E4FF53B2BF43B140FEEEC39408748094E8
:101E4C0080501730B60DA8067401088002C333D831
:0A1E5C00FC4207D2B5C2B50E80DFCC
:011E66002259
:101BDD00740F2508F8E6FF74212508F8E68FF084C8
:101BED00E5F004F6E52175F00A84C454F0FFE52113
:101BFD0075F00A84E5F02FFD7F88121C20E5227513
:101C0D00F00A84C454F0FFE52275F00A84E5F02F44
:031C1D00FD7F86C2
:0F1C2000C2B6D2B7121E8EAF05121E8EC2B722E9
:101EDA007F85121EF0EFC4540775F00AA4FEEF5472
:061EEA000F2EF51F7F839F
:0C1EF000C2B6D2B7121E8E121E3CC2B742
:011EFC0022C3
:091F1600C2B47F057E00021C84A8
:0A0006007F057E00121C84D2B42294
:101E1000121F16E4FD7F8E121C20121B8A7D227F6A
:101E20008C121C207F81121EF0EF547FFD7F8012E8
:0C1E30001C207D807F8E121C200200060A
:101ADA00A2B4E433FB64017003121F16121EDAEF7C
:101AEA00C4540775F00AA4FEEF540F2EF5207F891F
:101AFA00121EF0EFC4540775F00AA4FEEF540F2E1D
:101B0A00F5217F87121EF0EFC4540775F00AA4FE70
:101B1A00EF540F2EF5227F8B121EF08F23AF03EBAB
:071B2A0064017003120006C4
:011B31002291
:101B8A00A2B4E433FB64017003121F16E51F75F05B
:101B9A000A84C454F0FFE51F75F00A84E5F02FFDAE
:101BAA007F84121C20E52075F00A84C454F0FFE5F6
:101BBA002075F00A84E5F02FFD7F82121C20121B8B
:101BCA00F1AD237F8A121C20AF03EB64017003126C
:021BDA00000603
:011BDC0022E6
:101DE30075F00A84AFF075F005EFA42EF582E435A3
:101DF300F0F583E58224C3F582E5833400F583E4BB
:021E030093FF4B
:0B1E05008FCFE5CD30E7FB75CDC0228C
:101EFD00FF121F11E52A540FFF121F11E52AC454BA
:041F0D000F2410FF8E
:051F1100C296021E054E
:051F1F00D296021E0530
:101D0900121E67E4FEEEC3940874809480502AEE94
:101D190024B0FF121F11E4FF121F117F10121F11AF
:101D2900D296E4FDEDC39480748094805008E4FF5A
:0C1D3900121E050D80EE0E80CC021EB5BF
:101DB200C297121C80D297C2CCC29175CED075CD7B
:101DC200C0C296E4FBEBC3940874809480500FEB7E
:101DD200900BBC93FF121F11121C800B80E7021D97
:011DE20009F7
:0715B3007BFF7A00791AFDAD
:0815BA008B318A328933AE0740
:1015C200ED24B0FF121F11EE540FFF121F11EE1285
:1015D2001F0BE4F535AB31AA32A933AF3505358F90
:1015E2008275830012119B6056D296E4F534C3E5EE
:1015F20034940574809480503FE5357C0024FFF5D7
:1016020082EC34FFF583AB31AA32A93312119BFD70
:101612003395E08D82F5837405121253E5822534E9
:10162200F582E43583F583E58224D3F582E58334BC
:0F163200FF121E00053480B6E4FF121E058096DD
:011641002286
:0216CE00AC0767
:1016D000ED24B0FF121F11EC540FFF121F11EC127A
:1016E0001F0BD296E5346403701EFEEEC39405749E
:1016F000809480500EEB75F0648475F005121DED3A
:101700000E80E8E4FF121E05E534C3940274809451
:1017100080401CE4FEEEC3940574809480500BEB73
:1017200075F00A84121DE30E80EBE4FF121E05E53E
:1017300034C39401748094804018E4FEEEC3940591
:10174000748094805007EB121DE30E80EFE4FF12CB
:021750001E0574
:011752002274
:061753008F308D31A90367
:10175900E4FDEDC39405748094805068E53124B0AC
:101769002DFF121F11E530540FFF121F11E5301222
:101779001F0BD296E9640A7013FCECC394187480A9
:101789009480503DE4FF121E050C80EEE4FCECC38E
:101799009418748094805029ED75F018A4FBAAF070
:1017A900E975F078A42BFFE5F03AFEEC7A002FFFFB
:1017B900EA3EFE743A2FF58274023E121E000C8036
:0417C900CD0D808E34
:0117CD0022F9
:0617CE008F2D8D2EA903F2
:1017D400E4FDEDC39404748094805068E52E24B035
:1017E4002DFF121F11E52D540FFF121F11E52D12AD
:1017F4001F0BD296E9640A7013FCECC39410748036
:101804009480503DE4FF121E050C80EEE4FCECC312
:101814009410748094805029ED75F010A4FBAAF004
:10182400E975F030A42BFFE5F03AFEEC7A002FFFC7
:10183400EA3EFE74EA2FF58274063E121E000C8006
:04184400CD0D808EB8
:01184800227D
:0A131C008F2A8D2B8B2C8A2D892E31
:10132600C374019514F514E5136401701CE514707B
:1013360018E51C64046012E508700875150A751630
:101346000A800675170A75180AE515700375150AD9
:10135600E4F52FC3E52F9404748094805022E52F82
:10136600900ADE93252AFFAB2CAA2DA92E852F8263
:1013760075830012119BFBAD2B121753052F80D3DB
:10138600900AE2E493252AF52AE52B24B1121EFDE4
:10139600D296E4FEEEC394047480948050087F7E57
:1013A600121E050E80EEE52B24B3121EFDD296E426
:1013B600FEEEC394047480948050087F7E121E054E
:0313C6000E80EEA8
:0113C9002201
:101B3200E5246031AF1F7E00D3EF940C7480948053
:101B42004023EF24F4FBEE34FFFA7C007D0AAF035E
:101B5200FE1211C88F157C007D0AAF03AE0212116E
:101B6200C88D168011E51F75F00A84F515E51F75FD
:101B7200F00A8485F016E52075F00A84F517E52051
:081B820075F00A8485F01822B9
:02151800A90721
:10151A00E4FDEDC394027480948040030215B2ED99
:10152A0024B2FF121F11E4FF121F117F10121F11A4
:10153A00D296E4FCECC3940974809480506675F0EA
:10154A0009E9A42CF582E435F0F583E5822465F5F2
:10155A0082E583340BF583E49375F01CA4FBAAF0AF
:10156A00ED75F00EA4AEF02BF52BEA3EF52AEC64ED
:10157A0005700AFF121E05121E05121E05E4FEEE74
:10158A00C3940E748094805018EE7A00252BFBEADF
:10159A00352AFA74CA2BF58274083A121E000E8094
:0815AA00DE0C80900D02151CFF
:0115B2002216
:1018C4008F2D8D2E8B2FE5246014D3E52F940C746B
:1018D4008094804009E52F75F00C8485F02FC3E5D2
:1018E4002F940A74809480400B753402AB2FAD2E74
:1018F400AF2D80197BFF7A007916AD2EAF2D12150E
:10190400BAE52D2405FF753401AB2FAD2E1216CE8A
:10191400E52D240CFF7BFF7A007918AD2E1215BA41
:0F192400E52D2411FF753402AB30AD2E0216CE27
:041849008F2AAB0532
:10184D00E51F75F03CA47C002520FFEC35F0FEE48F
:10185D00FAEAC39417748094805019EA25E0243570
:10186D00F582E4340BF583D37401939FE4939E507A
:10187D00030A80DDEA25E02435F582E4340BF58397
:10188D00E493FE740193FF7C007D3C1211C88E2BF6
:10189D008F2CEA25E02435F582E4340BF583E493AF
:1018AD00FE740193FF7C007D3C1211C88D30AD0399
:0718BD00AB2CAF2A0218C496
:061A78008D2D8B2EA90745
:101A7E00E4FDEDC3940274809480504FE52D24B0A4
:101A8E002DFF121F11E9540FFF121F11E9121F0B28
:101A9E00D296E4FCECC3940E74809480502AED75BB
:101AAE00F00EA4FBAAF0E52E75F01CA42BFFE5F0BA
:101ABE003AFEEC7A002FFFEA3EFE74CA2FF58274CE
:0B1ACE00083E121E000C80CC0D80A70B
:011AD90022EA
:101A0D00C374019514F514E5136027E5147023E5EF
:101A1D000870057F021215B3E508640170057F1289
:101A2D001215B3E508640270417BFF7A00791DFD44
:101A3D0080337BFF7A007928E4FD7F0D1215BA758E
:101A4D003402AB21E4FD7F021216CE753402AB22B7
:101A5D007F121216CEE52375F00AA424D9F9740A63
:0B1A6D0035F0FA7BFF7F231215BA2230
:10126400E52125E024A2F582E4340BF583C374015F
:10127400939522F52CE4939400F52BC36480948019
:101284005005E4F52BF52CD3E52C9463E52B648011
:101294009480400FAE2BAF2C7C007D6412121DABEA
:1012A4000780027B0A7D057F3C1217CED3E52C9480
:1012B40009E52B648094804016AE2BAF2C7C007D16
:1012C4000A12121D7C007D0A12121DAB0580027BDE
:1012D4000A7D057F4E1217CEAE2BAF2C7C007D0A03
:1012E40012121DAB057D057F601217CEE4F52AC3EB
:1012F400E52A9404748094805015E52A75F00EA4B0
:10130400FFE52A240EFB7D06121A78052A80E07B6D
:08131400127D067F72021A78B7
:1013CA00E52125E024A2F582E4340BF583C37401F8
:1013DA00939522F52BE4939400F52AC364809480B4
:1013EA005005E4F52AF52BD3E52B9463E52A6480AE
:1013FA009480400FAE2AAF2B7C007D6412121DAB85
:10140A000780027B0A7D027F16121753D3E52B94BD
:10141A0009E52A648094804016AE2AAF2B7C007DB1
:10142A000A12121D7C007D0A12121DAB0580027B76
:10143A000A7D027F36121753AE2AAF2B7C007D0A33
:10144A0012121DAB057D027F561217537B0E7D02C9
:10145A007F02121A787B0F7D057F02121A787B129F
:07146A007D057F72021A7874
:100E3200E5232423FFE433FEC3EF9522FFEE940063
:100E4200FE7C007D071211C88D2DE521900B2893A1
:100E5200F52EE4F52CF52AE52AC3952D5018E52A3E
:100E620075F013A42404FF7BFF7A0079167D021229
:100E720015BA052A80E1852D2AC3E52A94077480D4
:100E820094805019052CE52A75F013A42404FF75EB
:100E92003401AB2C7D021216CE052A80DC752B01A3
:100EA200C3E52B940674809480507BE4F52AC3E555
:100EB2002A9407748094805068052CE52C952E4066
:100EC20018E52A75F013A404FFE52B2402FD7BFF2D
:100ED2007A00791A1215BA8044C3E52C940A7480F8
:100EE2009480E52A75F0135024A404FFE52B240214
:100EF200FD7BFF7A00791A1215BAE52A75F013A460
:100F02002404FFE52B2402FD753401800BA404FFA9
:100F1200E52B2402FD753402AB2C1216CE052A8075
:100F22008D052B020EA2E4F52BC3E52B94067480EB
:100F32009480504FE52B24B2FF121F11E4F52AC30F
:100F4200E52A9406748094805035E52A75F013A43E
:100F52002410540FFF121F11E52A75F013A4241058
:100F6200FFE435F0FEEF7804CEA2E713CE13D8F8F3
:100F72002410FF121F117FFF121F1F052A80C005B8
:100F82002B80A6E52D2522FFE433CF24FFCF34FFAB
:100F9200FE7C007D071211C88F2BE52B24B2FF12B5
:100FA2001F11E52375F013A424EB540FFF121F1138
:100FB200E52375F013A424EB121F0B7FFF121F1FF2
:100FC200121F1FE52375F013A424FB540FFF121FF9
:100FD20011E52375F013A424FB121F0B7FFF121FD0
:100FE2001F121F1F7FB1121F11E4FF121F117F106A
:100FF200121F11D296E4FEEEC394037480948050C3
:10100200087F20121E050E80EEE4F52AE52AC3941D
:1010120007748094805075E4FF121E05E4FEEEC34F
:10102200940574809480502DE52A75F00AA424E377
:10103200F582E4340AF583E49375F005A42EF58273
:10104200E435F0F583E58224D3F582E58334FF129B
:101052001E000E80C9E4FF121E05E4FEEEC39406D4
:101062007480948050087F20121E050E80EE7FE06F
:10107200121E05E4FEEEC394057480948050087F2E
:0C10820020121E050E80EE052A02100E42
:01108E00223F
:10108F00121E67E512704C121EDAEFC4540775F08A
:10109F000AA4FEEF540F2EF520121B32D3E51F9436
:1010AF000C748094807BFF40067A00792A80047A42
:1010BF0000792DE4FD7F021215BAE4FD7F6212184C
:1010CF00497B007A0079157D027F0212131CC291B1
:1010DF00021198E51264017018121ADA121A0D85AE
:1010EF002030AB1FE4FD7F621218C41213CA021125
:1010FF0098E51264027041121ADA121A0DD3E51F25
:10110F009411748094807BFF40157A007930E4FD50
:10111F007F631215BAE52375F00784AFF0800F7A5D
:10112F00007935E4FD7F631215BAE52314FF12151C
:10113F0018121264C2918051E5126403700B121AD7
:10114F00DA121A0D120E328040E5126404703AE57D
:10115F001324FF92917BFF7A00793BE4FD7F02120B
:10116F0015BA7BFF7A00794B7D017F021215BA7B8E
:10117F00FF7A0079547D067F021215BA7BFF7A0041
:0C118F0079627D077F021215BA021EB5BE
:101C2F00E51A64017024AF1DFEEF64017008E51E14
:101C3F007004050D8003E4F50DE51E64017008EFD7
:101C4F004E7004050E8003E4F50ED3E50D94507429
:101C5F008094804008751C02E4F50DF51AD3E50E4B
:101C6F009450748094804008751C04E4F50EF51AA6
:011C7F002242
:100BC400E51370047F0180027F00E51CFB7A00645A
:100BD4000170047E0180027E00EE5FFFE525700453
:100BE4007E0180027E00EE5F6019121C80E51224F3
:100BF40001FFEE33FE7C007D051211C88D12121D1B
:100C0400098066EB64024A703CE512640460337543
:100C14000C01E5136401700FF5137D807F8E121CA7
:100C240020120006020DE8751301E4F508F50975B4
:100C34000A2F751B08121F16E4FD7F8E121C20025A
:100C44000DE8020DE8E5126003020D79750F1875C1
:100C5400103CE51364016003020D39AF1CFEEF6420
:100C640001700CC3049508F508750C01020DE8EF3A
:100C740064034E705A741F2508F8E62401FFE43318
:100C8400FE740F2508F8E6FD7C001211C8741F25B8
:100C940008F8A605E51F75F00A84C454F0FFE51FA3
:100CA40075F00A84E5F02FFD7F84121C20E5207581
:100CB400F00A84C454F0FFE52075F00A84E5F02FAF
:100CC400FD7F82121C20750C01E4F514F51C22E54D
:100CD4001C64046003020E0C151BE51B6003020E6A
:100CE4000C751B08741F2508F8E62401FFE433FE85
:100CF400740F2508F8E6FD7C001211C8741F25083E
:100D0400F8A605E51F75F00A84C454F0FFE51F75C5
:100D1400F00A84E5F02FFD7F84121C20E52075F095
:100D24000A84C454F0FFE52075F00A84E5F02FFD31
:100D34007F82020E02E51C64036003020E0CC304EE
:100D44009524F524A2B4E433FB64017003121F1646
:100D5400E4FD7F8E121C20AD247FD0121C207D80E8
:100D64007F8E121C20AF03EB640170031200067522
:100D74000C01020DE8AF127E00EF640170047D01E6
:100D840080027D00EF64024E70047F0180027F00C8
:100D9400EF4DFFE512640370047E0180027E00EED5
:100DA4004F6065750F0C75101F751107E51364010D
:100DB4007056E51CFB7A0064017016E5082401FFF7
:100DC400E433FE7C007D031211C88D08750C01808C
:100DD40013EB64034A7011121BDDAD237F8A121CCE
:100DE40020750C01E4F51C22E51C6404701A151B23
:100DF400E51B7014751B08121BDDAD237F8A121CC2
:100E040020750C01E4F51422AF1C7E00EF6402701F
:100E140007E51D7003F51C22EF64044E7007E51E00
:0D0E24007003F51C22E51C64037002F51C30
:010E3100229E
:101D7E00E4F50B7592FFF59175B2FFF5B143CA10FC
:101D8E0053C9EF53B2FB43B10453B2F743B108C288
:101D9E00B5D297C2CCC291121DB2E4F512121ADA64
:041DAE00750C01228D
:03000300021933AC
:10193300C0E0C0F0C083C082C0D075D000C000C07A
:1019430003C004C005C006C00730B210E50B640134
:101953007005121D7E802F751D01802AE50B640121
:101963007005121CC7801FD3E50D9400748094800A
:101973004003751C01E51C64027002F51C751A0115
:10198300751D00750D00D007D006D005D004D00317
:0D199300D000D0D0D082D083D0F0D0E03290
:030013000219A02F
:1019A000C0E0C0F0C083C082C0D075D000C000C00D
:1019B00003C004C005C006C00730B310E50B6401C6
:1019C0007005121D7E802F751E01802AE50B6401B3
:1019D0007005121CC7801FD3E50E9400748094809C
:1019E0004003751C03E51C64047002F51C751A01A4
:1019F000751E00750E00D007D006D005D004D003A8
:0D1A0000D000D0D0D082D083D0F0D0E03222
:10147100121EB57592FFE4F59175B2FFF5B143CA3D
:101481001053C9EF53B2FB43B10453B2F743B10850
:10149100C2B7C2B5C2B6121DB2121E10D2A8C288FE
:1014A100D2AAC28AD2AFC290E50A150A7002150902
:1014B100E50A45097039750C01E513600EE5126402
:1014C100046008750900750A408024750919750AB8
:1014D100BC121ADAAF1F7E00C3EF94177480948098
:1014E100500AC3EF9406748094805003121CC7E520
:1014F1000C600DE4F50CE50B6003121DB212108FA8
:10150100121C2FE51C6003120BC475AA0A75AB806F
:0715110075870200008091C4
:03000000021642A3
:0C164200787FE4F6D8FD7581350216892A
:10119B00BB010CE58229F582E5833AF583E0225009
:1011AB0006E92582F8E622BBFE06E92582F8E22253
:0D11BB00E58229F582E5833AF583E493226D
:1011C800BC000BBE0029EF8DF084FFADF022E4CC0B
:1011D800F875F008EF2FFFEE33FEEC33FCEE9DECD4
:1011E800984005FCEE9DFE0FD5F0E9E4CEFD22ED1A
:1011F800F8F5F0EE8420D21CFEADF075F008EF2F64
:10120800FFED33FD4007985006D5F0F222C398FD54
:051218000FD5F0EA22F1
:10121D00C2D5EC30E709B2D5E4C39DFDE49CFCEEEC
:10122D0030E715B2D5E4C39FFFE49EFE1211C8C38B
:10123D00E49DFDE49CFC80031211C830D507C3E486
:06124D009FFFE49EFE225B
:10125300F5F0C582A4C582C5F0C583A42583F583B3
:011263002268
:10164E00021471E493A3F8E493A34003F68001F22D
:10165E0008DFF48029E493A3F85407240CC8C3339D
:10166E00C4540F4420C8834004F456800146F6DF6C
:10167E00E4800B0102040810204080901D45E47E9A
:10168E00019360BCA3FF543F30E509541FFEE49361
:10169E00A360010ECF54C025E060A840B8E493A328
:1016AE00FAE493A3F8E493A3C8C582C8CAC583CA53
:1016BE00F0A3C8C582C8CAC583CADFE9DEE780BE0B
:011D7D000065
:00000001FF
